:020000020000FC
:040000000C94340028
:040040000C947600A6
:040054000C944C00BC
:1000680008E00EBF0FEF0DBF789404E005BD01E076
:1000780000936E0004E600937C000FE800937A007A
:100088000FE304B90FE007B90CEF0AB90C94A1000B
:100098001090780012941694119C102CB10C1090AA
:1000A800790020907C0090E2191620F490E09E7F61
:1000B800F92E06C090EE191658F090E09160F92ECE
:1000C80090E020FE9260F92A952D9C7FF92A5F2CFA
:1000D80091E0292620927C0090917A009064909378
:1000E8007A001895339409F018959FEFA92E189562
:1000F800E0E0F1E018E061E0219130E025FB30F923
:1001080024FB31F923FB32F922FB33F921FB34F9C3
:1001180020FB35F950E027FB56F926FB57F9062F47
:10012800069506950C73502B462F4F7035B948B974
:100138005BB9660F1A9501F70895A8E0B1E004E3EA
:100148000D9304E30D9304E30D9303E0402E01E2C5
:10015800902EE0E0F1E000E00193302E502E00E018
:10016800019300E0019300E0019300E0019300E0B7
:10017800019300E0019300E0008300917A0000649D
:1001880000937A000E947C00A1FE0C94C600A0E0B7
:10019800B1E078E08C9188278D937A95D9F7A0E023
:1001A800B1E0C8E0D1E0142D788014110C9403015B
:1001B800672C51FE729407E0702250FC7A9450FE2E
:1001C800739407E07022088151FE0C94F000007FC0
:1001D800702A872C0C94F8000F707294702A872C60
:1001E8000C94F8000C94D80098100C940B014394CC
:1001F800032D0B0D0777902E902E0C940B01072DD5
:10020800762C602E87100C940B010C943400799294
:10021800772D72957770872D8770FD01E80F009113
:100228003F0003FDF395208100E8713018F0069532
:100238007A95E9F7202B20831A95A1F6792D7295E6
:100248007770892D8770FD01E80F00913F0003FD4D
:10025800F395208100E8713018F006957A95E9F752
:0C026800202B208300E0A02E0C94C60088
:00000001FF
